:020000040800F2
:1000000000000220B11F00080120000801200008A4
:100010000120000801200008012000080000000065
:1000200000000000000000000000000001200008A7
:100030000120000800000000012000080120000845
:10004000012000080120000801200008012000080C
:1000500001200008012000080120000801200008FC
:1000600001200008012000080120000801200008EC
:1000700001200008012000080120000801200008DC
:1000800001200008012000080120000801200008CC
:1000900001200008012000080120000801200008BC
:1000A00001200008012000080120000801200008AC
:1000B000012000080120000801200008012000089C
:1000C000012000080120000801200008012000088C
:1000D000012000080120000801200008012000087C
:1000E000012000080120000801200008012000086C
:1000F000012000080120000801200008012000085C
:10010000012000080120000801200008012000084B
:10011000012000080120000801200008012000083B
:10012000012000080120000801200008012000082B
:10013000012000080000000000000000012000086D
:10014000012000080120000801200008012000080B
:1001500001200008012000080120000801200008FB
:1001600001200008012000080120000801200008EB
:100170000120000801200008012000080000000004
:10018000000000000000000000000000000000006F
:10019000012000080000000000000000012000080D
:1001A0000000000000000000000000000120000826
:1001B000012000080120000801200008012000089B
:0401C0000120000812
:100200000348044B834202D0034B03B118477047A5
:100210005C0000205C000020000000000548064B48
:100220001B1AD90F01EBA301491002D0034B03B1F4
:10023000184770475C0000205C00002000000000B0
:1002400010B5064C237843B9FFF7DAFF044B13B11E
:100250000448AFF300800123237010BD5C00002030
:10026000000000000420000808B5044B1BB104493D
:100270000448AFF30080BDE80840CFE7000000006D
:10028000600000200420000870B50F4B0F4DAB42FA
:10029000A3EB050607D0B610002455F8043B013443
:1002A0009847A642F9D801F0ADFE094D094B5E1BF7
:1002B000AB424FEAA60606D0002455F8043B0134B1
:1002C0009847A642F9D870BD882000088820000809
:1002D000882000088C2000080000000000000000BA
:1002E000000000000000000000000000000000000E
:1002F00000000000000000000000000000000000FE
:1003000030B490F800F020F007016FF0000C10F00E
:10031000070491F820F040F048804FF000046FF09F
:100320000700D1E9002391F840F000F1080082FABB
:100330004CF2A4FA8CF283FA4CF3A2FA8CF34BBB86
:10034000D1E9022382FA4CF200F10800A4FA8CF2FF
:1003500083FA4CF3A2FA8CF3E3B9D1E9042382FACD
:100360004CF200F10800A4FA8CF283FA4CF3A2FAE2
:100370008CF37BB9D1E9062301F1200182FA4CF21A
:1003800000F10800A4FA8CF283FA4CF3A2FA8CF381
:10039000002BC6D0002A04BF04301A4612BAB2FAA3
:1003A00082F200EBD20030BC7047D1E9002304F0A8
:1003B0000305C4F100004FEAC50514F0040F91F8DD
:1003C00040F00CFA05F562EA05021CBF63EA05037A
:1003D00062464FF00004AAE7830730B547D0541EA9
:1003E000002A3ED0CAB2034601E0013C39D303F8EB
:1003F000012B9D07F9D1032C2CD9CDB205EB052596
:100400000F2C05EB054535D9A4F1100222F00F0C95
:1004100003F1100EE6444FEA121C1A46C2E90055D9
:10042000C2E9025510327245F8D10CF1010214F004
:100430000C0F03EB021204F00F0C13D0ACF1040309
:1004400023F003030433134442F8045B9342FBD1CB
:100450000CF003042CB1C9B21C4403F8011BA342E5
:10046000FBD130BD64461346002CF4D1F9E70346B6
:100470001446C0E71A46A446E0E700BF014B1868DF
:10048000704700BF000000200EB400B582B003AB7F
:10049000816853F8042B019300F060F802B05DF816
:1004A00004EB03B0704700BF0FB400B5074983B039
:1004B00004AB086853F8042B8168019300F04EF8F0
:1004C00003B05DF804EB04B0704700BF00000020EB
:1004D0009368013B002B936011DA10B49469A34236
:1004E00009DB0A2907D01368581C106019700846E8
:1004F0005DF8044B70475DF8044B00F073B9136866
:10050000581C106019700846704700BF9BB1F8B5C1
:10051000134406460F46541E5D1E01E0AC4208D04F
:1005200014F8011F3A463046FFF7D2FF431CF5D1BD
:10053000F8BD0020F8BD0020704700BF936810B5DB
:1005400014461BB918460023636010BD00F09AF9E9
:100550000023A3600023636010BD00BF2DE9F04FAE
:10056000A1B08B4691461C46049018B1036A002B3B
:1005700000F01C81BBF80C30180740F19580DBF8C7
:100580001030002B00F090800023CA460D9343F2F8
:100590002003ADF839309AF80030864E07940127D1
:1005A000002B79D0D14604E019F8013F002B00F070
:1005B0008580252BF8D1B9EB0A0840F0828099F8A4
:1005C0000030002B68D000234FF0FF32CDE9092323
:1005D00009F1010908930B938DF863301E9305E030
:1005E000089A07FA03F31A430892A1464C460522DB
:1005F00014F8011B304600F053FEA246831B00286E
:10060000EED1089BD90644BF20228DF8632099F8CB
:1006100000101A0744BF2B228DF863202A2966D1C7
:10062000079A1168043200290792C0F29A800B9150
:1006300099F801102E2970D05F4C0322204600F05B
:100640002FFE38B1089B001B4022824013430AF161
:10065000010A08931AF8011B58488DF83810062231
:1006600000F01EFE002800F08280554B002B69D060
:1006700007AA0092534B04985A4608A9AFF300808A
:100680000390039B013307D00D9B039A13440D93F2
:100690009AF80030002B85D1BBF80C305B060AD4E9
:1006A0000D9821B0BDE8F08F0498594600F048FE3F
:1006B00000283FF469AF4FF0FF30F2E7B9EB0A08CA
:1006C000EAD00AF1FF35CDF81490A946049D01E067
:1006D000A0453ED94C465A4619F8011F2846FFF757
:1006E000F7FE02340130A4EB0A04F1D1D4E7A1F102
:1006F0003002092A88BFCA469CD80B9B00E001340F
:10070000217803EB830302EB4303A1F13002092AB2
:10071000F5D92E290B93A2468ED19AF801102A29D9
:100720002FD1079B9AF802101A6809920433002A05
:100730000AF102000793B8BF4FF0FF338246B8BFFB
:10074000099379E7079B073323F0070308330793DF
:100750009AE70D99DDF81490414499F800300D9115
:100760002FE7494243F002030B91089360E707AA81
:100770000092144B04985A4608A900F0A1FF039078
:100780007FE7A1F130020023092A09930AF1010A47
:100790003FF652AF1AF8011F03EB830302EB43034A
:1007A000A1F13002092AF5D9099345E700F0D4FAFE
:1007B000E0E600BF442000084C200008502000085C
:1007C000000000000D05000810B4054C84461346D7
:1007D00020685DF8044B0A466146FFF7BFBE00BFC4
:1007E00000000020F8B50D461446064610B1036A15
:1007F000002B37D0A389A269A2601A0719D52369F3
:10080000BBB122686169D31AEDB299422F4620DD4F
:100810000133A1680139A160511C21601570626922
:100820009A420DD0A389DB0701D50A2D08D038469E
:10083000F8BD2146304600F083FD38B92369E0E772
:100840002146304600F042FB0028F0D04FF0FF3741
:10085000EDE72146304600F039FB0028F6D122684A
:100860000123D6E700F078FAC4E700BF10B4044CC7
:1008700003460A4620685DF8044B1946FFF7B2BFED
:10088000000000209368002B00F0F8802DE9F04F65
:10089000B1F90CC01CF0080F83B0904681460C469D
:1008A00031D00B697BB31CF00207D8F8006038D058
:1008B0000027D4F828B0216ADFF8C4A23D46554588
:1008C0002B463A4628BF53464846C5B1D84700286C
:1008D00040F3CA80D8F808301B1A07442D1AC8F80C
:1008E0000830002B00F0B68055452B46D4F828B0D0
:1008F000216A28BF53463A464846002DE6D1D6E93C
:1009000000750836DBE72146484600F019FD00284F
:1009100040F0AF80B4F90CC0D8F800601CF00207BA
:10092000C6D11CF0010A63D12368A1685746184656
:100930008B46002F58D01CF4007F00F0B580B942E0
:100940000A4600F2E1801CF4906F2FD021696269A1
:100950005D1A02EB420202EBD2726B1C52103B4456
:10096000934292BF93469B461A461CF4806F00F058
:10097000EA801146484600F00FFB002800F0F9809D
:100980002A462169009000F03DFDA289009B22F4D7
:10099000906242F08002A2815819ABEB0505C4F8C1
:1009A00014B02361A5602060BB463A4651460092D0
:1009B00000F0D0FBA1682368009AA1EB0B011A4458
:1009C0003D46A16022600027D8F808305B1BAA448E
:1009D000C8F80830002B3DD02368A168B4F90CC0DA
:1009E00018468B46002FA6D1D6E900A708369EE709
:1009F0003846BB463D460097002D41D0002846D0E2
:100A0000009A2068A168D4E90473AA4228BF2A4644
:100A1000B84204D901EB030A524500F385809342A2
:100A200075DC216AA76A5A464846B847B0F1000A01
:100A30001ADD009BB3EB0A0300930FD00120D8F816
:100A40000830A3EB0A03D344A5EB0A05C8F8083025
:100A5000002BD1D1002003B0BDE8F08F21464846DD
:100A600000F034FA0028EAD0B4F90C3043F0400327
:100A7000A3814FF0FF3003B0BDE8F08F0020704736
:100A8000756833460836002DFAD0D3F800B02A46F0
:100A90000A21584600F004FC002867D00130A0EB82
:100AA0000B0300931A46ACE722699A4214D3626999
:100AB000BA4211D86FF00043BB4228BF3B46A56A3B
:100AC00093FBF2F3216A02FB03F348465246A84720
:100AD000051EC9DD7F1B77E7B94228BF39460D46A1
:100AE00018460A46514600F035FBA1682368491BA9
:100AF0002B44A16023600029ECD12146484600F038
:100B0000E5F90028E6D0AFE7BB463A464EE759463E
:100B1000019200F01FFB019AA3689B1AA36023684F
:100B200013442360924684E75946524600F012FB74
:100B30002368534423602146484600F0C7F9002843
:100B40003FF477AF90E7484600F0F6FC03460028F4
:100B50007FF422AF2169484600F09EFAB4F90C30C8
:100B60000C22C9F8002023F080037FE76A1C009262
:100B700047E70C22B4F90C30C9F8002076E700BF33
:100B800000FCFF7F00207047024A0349034800F041
:100B900061BB00BF50000020CD0E00080400002003
:100BA0000C4B4168994210B5044601D000F08EF913
:100BB000A168094B994202D0204600F087F9E1680C
:100BC000064B994204D02046BDE8104000F07EB9A3
:100BD00010BD00BF78000020E00000204801002088
:100BE000002070472DE9F8432A4C2B49DFF8BC90D0
:100BF000DFF8BC80294FC4F83811002504230822EF
:100C0000294604F15C00264EE360C4E90055C4E9BE
:100C10000455A5606566A561FFF7DEFB214B6367A0
:100C20000822294604F1C400C4E90849C4E90A8736
:100C3000C4E91A55C4E91E552567C4F8CC50C4F858
:100C400080502663FFF7C8FB174BC4F8DC302946F9
:100C500004F16803082204F59670C4F88830C4E9EA
:100C60002398C4E92576C4E93455C4E93855C4F855
:100C7000D850C4F83451C4F8E850FFF7ADFB04F184
:100C8000D003C4E93D98C4E93F76C4F8F030BDE82C
:100C9000F88300BF78000020890B0008111B0008B2
:100CA000351B00080900010012000200A91A000803
:100CB000D11A0008F8B5254BD3F838310646002B79
:100CC0003CD0234FD7E90134013B04D51DE05A1C29
:100CD00004F1680419D0B4F90C50013B002DF6D191
:100CE0001C4BE360C4E90155C4E904556566256001
:100CF000A5610822294604F15C00FFF76DFBC4E9F9
:100D00000D55C4E912552046F8BD3D680DB12F467A
:100D1000D8E74FF4D671304600F03EF9044680B172
:100D20000423C0E900530C302946A0604FF4D07270
:100D30002546FFF751FB3C602F46C3E7FFF752FF04
:100D4000BFE70C2338603360DDE700BF7800002088
:100D5000500000200100FFFF036A03B17047044BFD
:100D6000044AD3F838310262002BF7D13AE700BFCA
:100D700078000020A10B0008704700BF704700BF3B
:100D8000024A0349002000F065BA00BF500000206D
:100D9000850B0008024A0349002000F05BBA00BF3F
:100DA00050000020E10B0008B1F90C302DE9F041B2
:100DB0001E070C4680463DD44A68002A56DDE56A87
:100DC000002D34D00022D8F80060C8F8002013F4B9
:100DD0008052216A57D101234046A847451C02464C
:100DE00066D0B4F90C30E56A216A580705D5636806
:100DF000D21A636B0BB1236CD21A00234046A8476A
:100E0000431C42D00023636023692360A389DF046D
:100E100000D56065616BC8F8006041B104F144031E
:100E2000994202D0404600F037F900236363002066
:100E3000BDE8F0810E69002EF9D09B070D6808BF50
:100E40004B690E6018BF0023AD1B8B600BE02B4677
:100E50003246216AA76A4046B847B0F1000CA5EBBC
:100E60000C05664406DD002DF1DCE0E70A6C002A83
:100E7000A5DCDCE7B4F90C3043F04003A3814FF06C
:100E8000FF30BDE8F081626DAFE7D8F80010B4F92B
:100E90000C301D29F0D80C4ACA40D507ECD5226980
:100EA000226000226260DA04B4D50029B1D0B1E733
:100EB000D8F80030002B94D01D2B01D0162BD9D19F
:100EC000C8F80060B3E700BF010040200B69B3B170
:100ED00010B5044682B008B1036A5BB1B1F90C30B9
:100EE00013B9002002B010BD204602B0BDE810408A
:100EF000FFF75ABF0191FFF72FFF0199EEE700209E
:100F0000704700BFB8B138B50D4A0369156804468B
:100F10002BB10DB12B6A53B1B4F90C300BB90020D1
:100F200038BD21462846BDE83840FFF73DBF28467A
:100F3000FFF712FFF0E7034A0349044800F08AB9BB
:100F40000000002050000020CD0E0008040000200A
:100F500070B5104E336805460C46B3B1214628469D
:100F600000F090FD431C0CD0C41C24F00304A042EC
:100F700005D0211A284600F085FD013001D0204619
:100F800070BD4FF0FF34204670BD194600F07AFD69
:100F90003060E3E7B40100202DE9F843CD1C25F0D3
:100FA000030508350C2D38BF0C25002D064618DB2F
:100FB000A94216D8DFF8DC8000F0C4FCD8F8042081
:100FC000A2B1144603E0636822467BB11C46236845
:100FD0005B1BF8D40B2B1FD89442636854D053602A
:100FE0000CE00C2333600020BDE8F883294630462E
:100FF000FFF7AEFF431C044619D00560304600F0F1
:10100000A3FC04F10B00231D20F00700C21A1CBF33
:101010001B1AA350BDE8F88361199442256014BFE0
:101020005160C8F80410635163684B60E6E7D8F874
:1010300004701FB33C467F68002FFBD123683946FC
:10104000304604EB030900F01DFD814516D12368ED
:10105000ED1A29463046FFF77BFF01300ED023689A
:10106000D8F804202B442360536883B1A34203D0F3
:101070001A465B689C42FBD10023B0E70C23336027
:10108000304600F061FCAEE7C8F80430B6E7C8F8B7
:101090000470B3E7B4010020002950D038B551F8EE
:1010A000043C0C1F002BB8BFE418054600F04AFCB6
:1010B000274A13682BB1A3420CD9216860188342D8
:1010C0002CD0636028461460BDE8384000F03CBC7A
:1010D000A3420FD81A465B68002BF9D1116850184B
:1010E000844217D02CD3636054602846BDE8384052
:1010F00000F02ABC11685018A04214D020D82168F2
:1011000060188342EFD118685B680844C4E90003A3
:101110005460EAE723680B441360E6E718685B68ED
:1011200008442060CDE720680144501883421160D4
:10113000DBD1D3E900040144C2E90014D5E77047CC
:101140000C232B602846BDE8384000F0FDBB00BFF3
:10115000B801002088420ED98B1883420BD900EBCE
:10116000020C002A6ED0624613F801CD02F801CDC0
:101170009942F9D170470F2A0FD8034602F1FF3C7C
:10118000002A5FD00CF1010C013B8C4411F8012BBB
:1011900003F8012F6145F9D1704740EA01039B072D
:1011A00051D1A2F1100370B501F1200C23F00F050D
:1011B00001F1100E00F11004AC441B095EF8105C44
:1011C00044F8105C5EF80C5C44F80C5C5EF8085C5B
:1011D00044F8085C5EF8045C44F8045C0EF1100E00
:1011E000E64504F11004E9D1013312F00C0F01EBD4
:1011F000031102F00F0400EB031328D0043C24F089
:1012000003064FEA940C1E441C1F8E465EF8045BD6
:1012100044F8045FB442F9D10CF1010402F0030276
:1012200003EB840301EB840102F1FF3C4AB10CF1B2
:10123000010C013B8C4411F8012B03F8012F61458F
:10124000F9D170BD704702F1FF3C03469AE7224690
:10125000EAE700BF2DE9F8430746884616464FF0F7
:101260000009D6E90154013D10D4A389012B08D906
:10127000B4F90E3001332146384602D0C04749EA5E
:101280000009013D6B1C04F16804EED13668002EA4
:10129000E7D14846BDE8F8830000000000000000E8
:1012A00001F0FF01102A2BDB10F0070F08D010F817
:1012B000013B013A8B422DD010F0070F42B3F6D11B
:1012C000F0B441EA012141EA014122F007047FF034
:1012D00000070023F0E80256083C85EA010586EA8B
:1012E000010685FA47F5A3FA87F586FA47F6A5FAC7
:1012F00087F68EB9EED1F0BC01F0FF0102F00702D3
:1013000032B110F8013B013A83EA010313B1F8D17D
:101310000020704701387047002D06BF354603385E
:10132000073815F0010F07D1013015F4807F02BF97
:10133000013015F4C03F0130F0BC0138704700BFE8
:1013400038B52F4B1B6805460C4613B11A6A002AA4
:101350004BD0B4F90C3018071CD5226922B313F016
:10136000010107D0616900204942A060A1613AB142
:10137000002038BD980758BF6169A160002AF7D1E5
:10138000190658BF1046F4D543F04003A3814FF02F
:10139000FF3038BDD9062CD55A0712D4226943F044
:1013A0000803A381002ADAD103F42071B1F5007F8C
:1013B000D5D02146284600F0C9FAB4F90C3022698C
:1013C000CDE7616B51B104F14402914204D028464B
:1013D000FFF762FEB4F90C3000226263226900213B
:1013E000C4E9002123F02403D9E71846FFF7B4FC31
:1013F000AFE7092243F040032A60A381C7E700BF9B
:1014000000000020844641EA000313F003036DD17D
:10141000403A41D351F8043B40F8043B51F8043BB7
:1014200040F8043B51F8043B40F8043B51F8043BBE
:1014300040F8043B51F8043B40F8043B51F8043BAE
:1014400040F8043B51F8043B40F8043B51F8043B9E
:1014500040F8043B51F8043B40F8043B51F8043B8E
:1014600040F8043B51F8043B40F8043B51F8043B7E
:1014700040F8043B51F8043B40F8043B51F8043B6E
:1014800040F8043B51F8043B40F8043B51F8043B5E
:1014900040F8043B403ABDD2303211D351F8043BFE
:1014A00040F8043B51F8043B40F8043B51F8043B3E
:1014B00040F8043B51F8043B40F8043B103AEDD2AD
:1014C0000C3205D351F8043B40F8043B043AF9D2FE
:1014D000043208D0D2071CBF11F8013B00F8013BD1
:1014E00001D30B8803806046704700BF082A13D3DE
:1014F0008B078DD010F003038AD0C3F10403D21AF6
:10150000DB071CBF11F8013B00F8013B80D331F829
:10151000023B20F8023B7BE7043AD9D3013A11F8A9
:10152000013B00F8013BF9D20B7803704B78437014
:101530008B788370604670472DE9F041144641B3C3
:101540000AB306460D4600F0F9FA8442074602D86F
:10155000B4EB500F13D821463046FFF71DFD8046EF
:1015600050B1BC422246294628BF3A46FFF74AFFFF
:1015700029463046FFF790FD4046BDE8F081A84679
:101580004046BDE8F081A046FFF786FD4046BDE835
:10159000F081BDE8F0411146FFF7FEBC2DE9F84FA0
:1015A00092461F460A698B68DDF828909A42B8BFB8
:1015B0001A46CAF8002091F843300C46064613B18B
:1015C0000132CAF80020226891065FD5DAF80030AF
:1015D0000233CAF80030226812F0060F11461DD1FE
:1015E000E1689942D8BF114618DD4FF0000804F1B8
:1015F000190B05E0E568DAF80030ED1A45450CDD19
:1016000001235A4639463046C847013008F10108DF
:10161000F0D14FF0FF30BDE8F88F216894F84330E7
:10162000003B18BF01238A060AD5E1185A1C302056
:1016300081F84300224494F8451082F843100233A5
:1016400004F1430239463046C8470130E1D02368EF
:10165000DAF80050216903F00603042BD4E90220D4
:101660001BD08A4220DD4FF00008521A90441A34F1
:10167000002501E0454517DA012322463946304668
:10168000C847013005F10105F4D1C2E712F0060F99
:101690000DD0003B18BF0123D2E7401B8A4220EA4D
:1016A000E078E2DC0028E2DC0020BDE8F88FE168A9
:1016B000DAF800309942D8BF114696DCAEE700BF99
:1016C0002DE9F047174684B00A7E0C9D0C4606466D
:1016D000984601F1430C002A35D0A2F15803D9B243
:1016E000202969D8202B67D8DFE813F0E6006600D0
:1016F00066006600660066006600660066006600BA
:101700006600AC007000660066006600660070004F
:10171000660066006600660021008300C600660061
:101720006600B6006600830066006600EC002B6869
:1017300022686169181D286010061B6802D45206D1
:1017400000F1E08019600023E1462361CDF80080BC
:101750003B4603AA21463046FFF720FF013020D048
:1017600023694A4639463046C047013019D02368BC
:10177000E068DDF80C909B0718D5484516DD00257C
:1017800004F1190A04E0E068A0EB0903AB420DDDA7
:101790000123524639463046C047013005F1010564
:1017A000F1D14FF0FF3004B0BDE8F0874845B8BF35
:1017B000484604B0BDE8F08784F84220012004F1D7
:1017C00042090023206184F84330BFE72A68236878
:1017D000111D1806296002D4590600F19580106881
:1017E000014600286268C0F2938054484FF00A0E08
:1017F00015E020682B6810F0800F53F8041B02D10D
:10180000400648BF89B26F2A4C482B6014BF4FF086
:101810000A0E4FF0080E0023626884F84330002A55
:10182000A26051DB236823F00403236000294BD11D
:10183000002A7BD1E146BEF1080F56D0ACEB09037C
:10184000236183E72B681A6804332B6004F1420993
:1018500084F842200120B4E72B686268191D2960D2
:10186000D3F8009000214846FFF71AFD002863D006
:10187000A0EB09006060A4E7236843F02003236025
:1018800078222F4884F845202A6813F0800F52F8F8
:10189000041B03D113F0400F18BF89B22A60DA0786
:1018A00044BF43F02003236019B9236823F02003C9
:1018B00023604FF0100EAEE7582384F845301F48E0
:1018C0002368E1E72368DBE77546E146B1FBF5F302
:1018D00005FB131A0A46AA4210F80A1009F8011D5E
:1018E0001946F3D2BEF1080FA8D12368DD07A5D5AC
:1018F000626823699A42A1DC302309F8013C09F1AE
:10190000FF399BE719801EE7B2F90010084668E727
:101910002D20002AA26084F8430002DB23F0040398
:1019200023600A2505484942AE46CEE7037884F88D
:10193000423004F142097EE7606842E7582000081F
:101940006C200008704700BF704700BF70B5B1F948
:101950000C300C46990796B007D504F147030122D5
:10196000C4E90432236016B070BDB4F90E1000292A
:10197000054629DB6A4600F011F9002822DB4FF406
:1019800080612846019EFFF707FB88B3A38920608A
:1019900043F0800306F47046A381B6F5005F4FF470
:1019A0008063C4E90403DED1B4F90E10284600F0C8
:1019B00057F80028D7D0A38923F0030343F001038D
:1019C000A381D0E7B4F90C3013F0800F14BF402688
:1019D0004FF4806631462846FFF7DEFA40B1A3890E
:1019E000206043F08003C4E90406A38116B070BDF3
:1019F000B4F90C309A05B6D423F0030304F147027E
:101A000043F002030121C4E90421A3812260AAE773
:101A100070B50C46B1F90E10002996B015461E4659
:101A20000FDB6A4600F0BAF800280ADB019B03F4DA
:101A30007043A3F50053B3FA83F34FF480625B095C
:101A400008E0A28912F0800F4FF0000314BF40227B
:101A50004FF48062002033602A6016B070BD00BF72
:101A600038B5074D0022044608462A6000F051FAB6
:101A7000431C00D038BD2B68002BFBD0236038BD41
:101A8000BC01002038B5074D0022044608462A60F4
:101A900000F058FA431C00D038BD2B68002BFBD057
:101AA000236038BDBC01002010B50C46B1F90E1002
:101AB00000F05EF8002803DB636D0344636510BD2E
:101AC000A38923F48053A38110BD00BF0020704779
:101AD0002DE9F0410C46B1F90C101F46CB05054627
:101AE00016460BD421F48051A1813B46B4F90E1067
:101AF00032462846BDE8F04100F07CB8B4F90E103B
:101B00000223002200F060F8B4F90C10EAE700BFED
:101B100010B50C46B1F90E1000F056F8B4F90C30BF
:101B2000421C0EBF23F4805343F480536065A381AD
:101B300010BD00BFB1F90E1000F008B851F8043C18
:101B4000181F002BBCBF0B58C018704738B5074D85
:101B50000022044608462A6000F0BFF9431C00D06A
:101B600038BD2B68002BFBD0236038BDBC010020A2
:101B700038B50C46084D8446114620461A460023C7
:101B80002B60644600F070F9431C00D038BD2B6810
:101B9000002BFBD0236038BDBC01002070B50C4683
:101BA000084D03460026204611461C462E6000F0D4
:101BB000A0F9431C00D070BD2B68002BFBD0236024
:101BC00070BD00BFBC01002038B50C46084D8446EE
:101BD000114620461A4600232B60644600F0A4F903
:101BE000431C00D038BD2B68002BFBD0236038BDD0
:101BF000BC01002038B50C46084D844611462046ED
:101C00001A4600232B60644600F04BF9431C00D0B9
:101C100038BD2B68002BFBD0236038BDBC010020F1
:101C200080B400AF0B4B1B6B0A4A43F001031363F4
:101C3000094B1B68084A43F480631360064B1B681A
:101C4000054A23F40063136000BFBD465DF8047BC2
:101C5000704700BF003802400000024080B400AF6F
:101C6000054B9B69044A43F02003936100BFBD46C6
:101C70005DF8047B704700BF0000024080B400AFF5
:101C8000054B9B69044A43F40013936100BFBD46B2
:101C90005DF8047B704700BF0000024080B500AFD4
:101CA000064B5B6903F02003002B02D0FFF7E6FF31
:101CB00001E0FFF7D3FF00BF80BD00BF000002407E
:101CC00080B400AF104B1B6C0F4A43F00103136448
:101CD0004FF0804343F67F629A624FF0804340F2B8
:101CE000E732DA624FF0804300225A624FF08043BD
:101CF0001B684FF0804243F00103136000BFBD46F4
:101D00005DF8047B704700BF0038024080B400AF2C
:101D1000214B1B6B204A43F0010313631F4B1B68CD
:101D20001E4A23F0100313601C4B1B681B4A43F030
:101D300020031360194B1B6A184A43F48073136223
:101D4000164B1B6A154A43F400731362134B1B6A4C
:101D5000124A43F480631362104B1B6A0F4A23F448
:101D6000006313620C4B1B6C0B4A43F40033136487
:101D70000B4B8B229A600A4BDB68094A43F008033D
:101D8000D360074BDB68064A43F40053D36000BFBF
:101D9000BD465DF8047B70470038024000000240F9
:101DA0000044004080B483B000AF0346FB7100BF25
:101DB000074B1B6803F08003002BF9D0044AFB7922
:101DC000536000BF0C37BD465DF8047B704700BF11
:101DD0000044004080B582B000AF78607B68DBB221
:101DE0001846FFF7DFFF7B6818460837BD4680BD01
:101DF000B0B586B000AF194B3C461D460FCD0FC4A1
:101E00002B681A46228002341B0C23703B4618466E
:101E1000FEF776FA7861FFF703FFFFF751FFFFF750
:101E200075FFFFF73BFF79690D48FEF73DFB3B4629
:101E300019460C48FEF738FB00BF4FF080431B6982
:101E400003F00103002BF8D04FF080431B694FF0E3
:101E5000804223F001031361E3E700BF3020000854
:101E60001C2000082820000880B586B000AFF8606C
:101E7000B9607A6000237B610AE0AFF3008001461D
:101E8000BB685A1CBA60CAB21A707B6901337B61A5
:101E90007A697B689A42F0DB7B6818461837BD4642
:101EA00080BD80B586B000AFF860B9607A6000236D
:101EB0007B6109E0BB685A1CBA601B781846FFF7C3
:101EC00089FF7B6901337B617A697B689A42F1DB28
:101ED0007B6818461837BD4680BD80B483B000AF1C
:101EE00078604FF0FF3318460C37BD465DF8047B31
:101EF000704780B483B000AF786039603B684FF4BE
:101F000000525A60002318460C37BD465DF8047B2A
:101F1000704780B483B000AF7860012318460C3757
:101F2000BD465DF8047B704780B485B000AFF860B3
:101F3000B9607A60002318461437BD465DF8047B0B
:101F40007047000080B586B000AF7860144A154B2A
:101F5000D31A7B617B693B61134B1B68002B02D159
:101F6000114B124A1A60104B1A687B6813443A6985
:101F70009A4207D2FEF782FA03460C221A604FF00B
:101F8000FF3309E0084B1B68FB60074B1A687B684E
:101F90001344054A1360FB6818461837BD4680BDD8
:101FA0000000022000040000C0010020C801002041
:101FB0000D488546AFF300800C480D490D4A0023BB
:101FC00002E0D458C4500433C4188C42F9D30A4AEE
:101FD0000A4C002301E013600432A242FBD3FEF757
:101FE00053F9FFF705FFFEE7000002200000002084
:101FF0005C000020902000085C000020C40100204C
:10200000FEE70000F8B500BFF8BC08BC9E4670476C
:0C201000F8B500BFF8BC08BC9E46704745
:10201C006C656E203D2025750D0A000025730D0A98
:10202C0000000000466C6168736564206F6E636528
:10203C0020616761696E0000232D302B20000000A9
:10204C00686C4C006566674546470000303132339A
:10205C003435363738394142434445460000000098
:10206C003031323334353637383961626364656602
:04207C000000000060
:0820800080E2FF7F0100000077
:0420880069020008E1
:04208C004102000805
:10209000040000200000000078000020E000002084
:1020A00048010020000000000000000000000000C7
:1020B0000000000000000000000000000000000020
:1020C0000000000000000000000000000000000010
:1020D0000000000000000000000000000000000000
:0C20E00000000000030000007800002059
:0400000508001FB11F
:00000001FF
